{
  "contractName": "ArtworkToken",
  "abi": [
    {
      "constant": true,
      "inputs": [],
      "name": "name",
      "outputs": [
        {
          "name": "",
          "type": "string"
        }
      ],
      "payable": false,
      "stateMutability": "view",
      "type": "function"
    },
    {
      "constant": true,
      "inputs": [
        {
          "name": "_tokenId",
          "type": "uint256"
        }
      ],
      "name": "getApproved",
      "outputs": [
        {
          "name": "",
          "type": "address"
        }
      ],
      "payable": false,
      "stateMutability": "view",
      "type": "function"
    },
    {
      "constant": false,
      "inputs": [
        {
          "name": "_to",
          "type": "address"
        },
        {
          "name": "_tokenId",
          "type": "uint256"
        }
      ],
      "name": "approve",
      "outputs": [],
      "payable": false,
      "stateMutability": "nonpayable",
      "type": "function"
    },
    {
      "constant": true,
      "inputs": [],
      "name": "totalSupply",
      "outputs": [
        {
          "name": "",
          "type": "uint256"
        }
      ],
      "payable": false,
      "stateMutability": "view",
      "type": "function"
    },
    {
      "constant": false,
      "inputs": [
        {
          "name": "message",
          "type": "string"
        },
        {
          "name": "value",
          "type": "address"
        }
      ],
      "name": "logAddress",
      "outputs": [],
      "payable": false,
      "stateMutability": "nonpayable",
      "type": "function"
    },
    {
      "constant": true,
      "inputs": [
        {
          "name": "_owner",
          "type": "address"
        },
        {
          "name": "_index",
          "type": "uint256"
        }
      ],
      "name": "tokenOfOwnerByIndex",
      "outputs": [
        {
          "name": "",
          "type": "uint256"
        }
      ],
      "payable": false,
      "stateMutability": "view",
      "type": "function"
    },
    {
      "constant": false,
      "inputs": [
        {
          "name": "message",
          "type": "string"
        }
      ],
      "name": "log",
      "outputs": [],
      "payable": false,
      "stateMutability": "nonpayable",
      "type": "function"
    },
    {
      "constant": false,
      "inputs": [
        {
          "name": "_from",
          "type": "address"
        },
        {
          "name": "_to",
          "type": "address"
        },
        {
          "name": "_tokenId",
          "type": "uint256"
        }
      ],
      "name": "safeTransferFrom",
      "outputs": [],
      "payable": false,
      "stateMutability": "nonpayable",
      "type": "function"
    },
    {
      "constant": true,
      "inputs": [
        {
          "name": "_tokenId",
          "type": "uint256"
        }
      ],
      "name": "exists",
      "outputs": [
        {
          "name": "",
          "type": "bool"
        }
      ],
      "payable": false,
      "stateMutability": "view",
      "type": "function"
    },
    {
      "constant": true,
      "inputs": [
        {
          "name": "_index",
          "type": "uint256"
        }
      ],
      "name": "tokenByIndex",
      "outputs": [
        {
          "name": "",
          "type": "uint256"
        }
      ],
      "payable": false,
      "stateMutability": "view",
      "type": "function"
    },
    {
      "constant": true,
      "inputs": [],
      "name": "InterfaceSignature_ERC721Optional",
      "outputs": [
        {
          "name": "",
          "type": "bytes4"
        }
      ],
      "payable": false,
      "stateMutability": "view",
      "type": "function"
    },
    {
      "constant": true,
      "inputs": [
        {
          "name": "_tokenId",
          "type": "uint256"
        }
      ],
      "name": "ownerOf",
      "outputs": [
        {
          "name": "",
          "type": "address"
        }
      ],
      "payable": false,
      "stateMutability": "view",
      "type": "function"
    },
    {
      "constant": true,
      "inputs": [
        {
          "name": "_owner",
          "type": "address"
        }
      ],
      "name": "balanceOf",
      "outputs": [
        {
          "name": "",
          "type": "uint256"
        }
      ],
      "payable": false,
      "stateMutability": "view",
      "type": "function"
    },
    {
      "constant": false,
      "inputs": [
        {
          "name": "message",
          "type": "string"
        },
        {
          "name": "value",
          "type": "uint256"
        }
      ],
      "name": "logUint",
      "outputs": [],
      "payable": false,
      "stateMutability": "nonpayable",
      "type": "function"
    },
    {
      "constant": false,
      "inputs": [
        {
          "name": "message",
          "type": "string"
        },
        {
          "name": "value",
          "type": "string"
        }
      ],
      "name": "logString",
      "outputs": [],
      "payable": false,
      "stateMutability": "nonpayable",
      "type": "function"
    },
    {
      "constant": true,
      "inputs": [],
      "name": "owner",
      "outputs": [
        {
          "name": "",
          "type": "address"
        }
      ],
      "payable": false,
      "stateMutability": "view",
      "type": "function"
    },
    {
      "constant": true,
      "inputs": [],
      "name": "symbol",
      "outputs": [
        {
          "name": "",
          "type": "string"
        }
      ],
      "payable": false,
      "stateMutability": "view",
      "type": "function"
    },
    {
      "constant": false,
      "inputs": [
        {
          "name": "_to",
          "type": "address"
        },
        {
          "name": "_approved",
          "type": "bool"
        }
      ],
      "name": "setApprovalForAll",
      "outputs": [],
      "payable": false,
      "stateMutability": "nonpayable",
      "type": "function"
    },
    {
      "constant": false,
      "inputs": [
        {
          "name": "_from",
          "type": "address"
        },
        {
          "name": "_to",
          "type": "address"
        },
        {
          "name": "_tokenId",
          "type": "uint256"
        },
        {
          "name": "_data",
          "type": "bytes"
        }
      ],
      "name": "safeTransferFrom",
      "outputs": [],
      "payable": false,
      "stateMutability": "nonpayable",
      "type": "function"
    },
    {
      "constant": true,
      "inputs": [
        {
          "name": "_tokenId",
          "type": "uint256"
        }
      ],
      "name": "tokenURI",
      "outputs": [
        {
          "name": "",
          "type": "string"
        }
      ],
      "payable": false,
      "stateMutability": "view",
      "type": "function"
    },
    {
      "constant": true,
      "inputs": [
        {
          "name": "_owner",
          "type": "address"
        },
        {
          "name": "_operator",
          "type": "address"
        }
      ],
      "name": "isApprovedForAll",
      "outputs": [
        {
          "name": "",
          "type": "bool"
        }
      ],
      "payable": false,
      "stateMutability": "view",
      "type": "function"
    },
    {
      "constant": false,
      "inputs": [
        {
          "name": "newOwner",
          "type": "address"
        }
      ],
      "name": "transferOwnership",
      "outputs": [],
      "payable": false,
      "stateMutability": "nonpayable",
      "type": "function"
    },
    {
      "inputs": [],
      "payable": false,
      "stateMutability": "nonpayable",
      "type": "constructor"
    },
    {
      "anonymous": false,
      "inputs": [
        {
          "indexed": true,
          "name": "_from",
          "type": "address"
        },
        {
          "indexed": true,
          "name": "_to",
          "type": "address"
        },
        {
          "indexed": false,
          "name": "_tokenId",
          "type": "uint256"
        },
        {
          "indexed": false,
          "name": "_price",
          "type": "uint64"
        },
        {
          "indexed": false,
          "name": "_currency",
          "type": "bytes8"
        }
      ],
      "name": "Sale",
      "type": "event"
    },
    {
      "anonymous": false,
      "inputs": [
        {
          "indexed": false,
          "name": "time",
          "type": "uint256"
        },
        {
          "indexed": false,
          "name": "msg",
          "type": "string"
        },
        {
          "indexed": false,
          "name": "value",
          "type": "string"
        }
      ],
      "name": "LogString",
      "type": "event"
    },
    {
      "anonymous": false,
      "inputs": [
        {
          "indexed": false,
          "name": "time",
          "type": "uint256"
        },
        {
          "indexed": false,
          "name": "msg",
          "type": "string"
        },
        {
          "indexed": false,
          "name": "value",
          "type": "address"
        }
      ],
      "name": "LogAddress",
      "type": "event"
    },
    {
      "anonymous": false,
      "inputs": [
        {
          "indexed": false,
          "name": "time",
          "type": "uint256"
        },
        {
          "indexed": false,
          "name": "msg",
          "type": "string"
        },
        {
          "indexed": false,
          "name": "value",
          "type": "uint256"
        }
      ],
      "name": "LogUint",
      "type": "event"
    },
    {
      "anonymous": false,
      "inputs": [
        {
          "indexed": true,
          "name": "previousOwner",
          "type": "address"
        },
        {
          "indexed": true,
          "name": "newOwner",
          "type": "address"
        }
      ],
      "name": "OwnershipTransferred",
      "type": "event"
    },
    {
      "anonymous": false,
      "inputs": [
        {
          "indexed": true,
          "name": "_from",
          "type": "address"
        },
        {
          "indexed": true,
          "name": "_to",
          "type": "address"
        },
        {
          "indexed": false,
          "name": "_tokenId",
          "type": "uint256"
        }
      ],
      "name": "Transfer",
      "type": "event"
    },
    {
      "anonymous": false,
      "inputs": [
        {
          "indexed": true,
          "name": "_owner",
          "type": "address"
        },
        {
          "indexed": true,
          "name": "_approved",
          "type": "address"
        },
        {
          "indexed": false,
          "name": "_tokenId",
          "type": "uint256"
        }
      ],
      "name": "Approval",
      "type": "event"
    },
    {
      "anonymous": false,
      "inputs": [
        {
          "indexed": true,
          "name": "_owner",
          "type": "address"
        },
        {
          "indexed": true,
          "name": "_operator",
          "type": "address"
        },
        {
          "indexed": false,
          "name": "_approved",
          "type": "bool"
        }
      ],
      "name": "ApprovalForAll",
      "type": "event"
    },
    {
      "constant": true,
      "inputs": [
        {
          "name": "_interfaceID",
          "type": "bytes4"
        }
      ],
      "name": "supportsInterface",
      "outputs": [
        {
          "name": "",
          "type": "bool"
        }
      ],
      "payable": false,
      "stateMutability": "pure",
      "type": "function"
    },
    {
      "constant": false,
      "inputs": [
        {
          "name": "_owner",
          "type": "address"
        }
      ],
      "name": "initialize",
      "outputs": [],
      "payable": false,
      "stateMutability": "nonpayable",
      "type": "function"
    },
    {
      "constant": false,
      "inputs": [
        {
          "name": "_manager",
          "type": "address"
        }
      ],
      "name": "setManager",
      "outputs": [],
      "payable": false,
      "stateMutability": "nonpayable",
      "type": "function"
    },
    {
      "constant": true,
      "inputs": [
        {
          "name": "_tokenId",
          "type": "uint256"
        }
      ],
      "name": "editionInfo",
      "outputs": [
        {
          "name": "_title",
          "type": "string"
        },
        {
          "name": "_artistName",
          "type": "string"
        },
        {
          "name": "_edition",
          "type": "uint32"
        },
        {
          "name": "_editionNumber",
          "type": "uint32"
        },
        {
          "name": "_tokenURI",
          "type": "string"
        }
      ],
      "payable": false,
      "stateMutability": "view",
      "type": "function"
    },
    {
      "constant": false,
      "inputs": [
        {
          "name": "_tokenId",
          "type": "uint256"
        },
        {
          "name": "_title",
          "type": "string"
        },
        {
          "name": "_artistName",
          "type": "string"
        },
        {
          "name": "_tokenURI",
          "type": "string"
        },
        {
          "name": "_editionNumber",
          "type": "uint32"
        },
        {
          "name": "_editionCount",
          "type": "uint32"
        },
        {
          "name": "_price",
          "type": "uint64"
        },
        {
          "name": "_artist",
          "type": "address"
        },
        {
          "name": "_buyer",
          "type": "address"
        }
      ],
      "name": "mint",
      "outputs": [],
      "payable": false,
      "stateMutability": "nonpayable",
      "type": "function"
    },
    {
      "constant": false,
      "inputs": [
        {
          "name": "_from",
          "type": "address"
        },
        {
          "name": "_to",
          "type": "address"
        },
        {
          "name": "_tokenId",
          "type": "uint256"
        }
      ],
      "name": "transferFrom",
      "outputs": [],
      "payable": false,
      "stateMutability": "nonpayable",
      "type": "function"
    },
    {
      "constant": false,
      "inputs": [
        {
          "name": "_seller",
          "type": "address"
        },
        {
          "name": "_buyer",
          "type": "address"
        },
        {
          "name": "_tokenId",
          "type": "uint256"
        },
        {
          "name": "_price",
          "type": "uint64"
        }
      ],
      "name": "transferFrom",
      "outputs": [],
      "payable": false,
      "stateMutability": "nonpayable",
      "type": "function"
    },
    {
      "constant": false,
      "inputs": [
        {
          "name": "_tokenId",
          "type": "uint256"
        }
      ],
      "name": "burn",
      "outputs": [],
      "payable": false,
      "stateMutability": "nonpayable",
      "type": "function"
    },
    {
      "constant": false,
      "inputs": [
        {
          "name": "_tokenId",
          "type": "uint256"
        },
        {
          "name": "_uri",
          "type": "string"
        }
      ],
      "name": "setTokenURI",
      "outputs": [],
      "payable": false,
      "stateMutability": "nonpayable",
      "type": "function"
    }
  ],
  "bytecode": "0x60806040523480156200001157600080fd5b506040805190810160405280601781526020017f4469676974616c204f626a6563747320417274776f726b0000000000000000008152506040805190810160405280600481526020017f444f424a00000000000000000000000000000000000000000000000000000000815250816004908051906020019062000096929190620000f9565b508060059080519060200190620000af929190620000f9565b50505033600b60006101000a81548173ffffffffffffffffffffffffffffffffffffffff021916908373ffffffffffffffffffffffffffffffffffffffff160217905550620001a8565b828054600181600116156101000203166002900490600052602060002090601f016020900481019282601f106200013c57805160ff19168380011785556200016d565b828001600101855582156200016d579182015b828111156200016c5782518255916020019190600101906200014f565b5b5090506200017c919062000180565b5090565b620001a591905b80821115620001a157600081600090555060010162000187565b5090565b90565b613e1780620001b86000396000f30060806040526004361061018b576000357c0100000000000000000000000000000000000000000000000000000000900463ffffffff16806301ffc9a71461019057806306fdde03146101f4578063081812fc14610284578063095ea7b3146102f1578063162094c41461033e57806318160ddd146103835780631ce91923146103ae57806323b872dd146104375780632f745c59146104a457806341304fac1461050557806342842e0e1461056e57806342966c68146105db5780634f558e79146106085780634f6ccce71461064d578063624de3d91461068e57806362eb5720146106f75780636352211e146107e057806370a082311461084d57806372412b35146108a457806380bb5207146109175780638da5cb5b146109c657806395d89b4114610a1d578063a22cb46514610aad578063a92ca27d14610afc578063b88d4fde14610ca0578063c4d66de814610d53578063c87b56dd14610d96578063d0ebdbe714610e3c578063e868837414610e7f578063e985e9c514610f00578063f2fde38b14610f7b575b600080fd5b34801561019c57600080fd5b506101da60048036038101908080357bffffffffffffffffffffffffffffffffffffffffffffffffffffffff19169060200190929190505050610fbe565b604051808215151515815260200191505060405180910390f35b34801561020057600080fd5b506102096111f3565b6040518080602001828103825283818151815260200191508051906020019080838360005b8381101561024957808201518184015260208101905061022e565b50505050905090810190601f1680156102765780820380516001836020036101000a031916815260200191505b509250505060405180910390f35b34801561029057600080fd5b506102af60048036038101908080359060200190929190505050611295565b604051808273ffffffffffffffffffffffffffffffffffffffff1673ffffffffffffffffffffffffffffffffffffffff16815260200191505060405180910390f35b3480156102fd57600080fd5b5061033c600480360381019080803573ffffffffffffffffffffffffffffffffffffffff169060200190929190803590602001909291905050506112d2565b005b34801561034a57600080fd5b5061038160048036038101908080359060200190929190803590602001908201803590602001919091929391929390505050611498565b005b34801561038f57600080fd5b506103986115a1565b6040518082815260200191505060405180910390f35b3480156103ba57600080fd5b50610435600480360381019080803590602001908201803590602001908080601f0160208091040260200160405190810160405280939291908181526020018383808284378201915050505050509192919290803573ffffffffffffffffffffffffffffffffffffffff1690602001909291905050506115ae565b005b34801561044357600080fd5b506104a2600480360381019080803573ffffffffffffffffffffffffffffffffffffffff169060200190929190803573ffffffffffffffffffffffffffffffffffffffff1690602001909291908035906020019092919050505061168a565b005b3480156104b057600080fd5b506104ef600480360381019080803573ffffffffffffffffffffffffffffffffffffffff169060200190929190803590602001909291905050506118f8565b6040518082815260200191505060405180910390f35b34801561051157600080fd5b5061056c600480360381019080803590602001908201803590602001908080601f016020809104026020016040519081016040528093929190818152602001838380828437820191505050505050919291929050505061196f565b005b34801561057a57600080fd5b506105d9600480360381019080803573ffffffffffffffffffffffffffffffffffffffff169060200190929190803573ffffffffffffffffffffffffffffffffffffffff16906020019092919080359060200190929190505050611a2a565b005b3480156105e757600080fd5b5061060660048036038101908080359060200190929190505050611ada565b005b34801561061457600080fd5b5061063360048036038101908080359060200190929190505050611bc0565b604051808215151515815260200191505060405180910390f35b34801561065957600080fd5b5061067860048036038101908080359060200190929190505050611c31565b6040518082815260200191505060405180910390f35b34801561069a57600080fd5b506106a3611c69565b60405180827bffffffffffffffffffffffffffffffffffffffffffffffffffffffff19167bffffffffffffffffffffffffffffffffffffffffffffffffffffffff1916815260200191505060405180910390f35b34801561070357600080fd5b506107de60048036038101908080359060200190929190803590602001908201803590602001919091929391929390803590602001908201803590602001919091929391929390803590602001908201803590602001919091929391929390803563ffffffff169060200190929190803563ffffffff169060200190929190803567ffffffffffffffff169060200190929190803573ffffffffffffffffffffffffffffffffffffffff169060200190929190803573ffffffffffffffffffffffffffffffffffffffff169060200190929190505050611cac565b005b3480156107ec57600080fd5b5061080b60048036038101908080359060200190929190505050611fa7565b604051808273ffffffffffffffffffffffffffffffffffffffff1673ffffffffffffffffffffffffffffffffffffffff16815260200191505060405180910390f35b34801561085957600080fd5b5061088e600480360381019080803573ffffffffffffffffffffffffffffffffffffffff169060200190929190505050612024565b6040518082815260200191505060405180910390f35b3480156108b057600080fd5b50610915600480360381019080803590602001908201803590602001908080601f0160208091040260200160405190810160405280939291908181526020018383808284378201915050505050509192919290803590602001909291905050506120a8565b005b34801561092357600080fd5b506109c4600480360381019080803590602001908201803590602001908080601f0160208091040260200160405190810160405280939291908181526020018383808284378201915050505050509192919290803590602001908201803590602001908080601f0160208091040260200160405190810160405280939291908181526020018383808284378201915050505050509192919290505050612158565b005b3480156109d257600080fd5b506109db61226d565b604051808273ffffffffffffffffffffffffffffffffffffffff1673ffffffffffffffffffffffffffffffffffffffff16815260200191505060405180910390f35b348015610a2957600080fd5b50610a32612293565b6040518080602001828103825283818151815260200191508051906020019080838360005b83811015610a72578082015181840152602081019050610a57565b50505050905090810190601f168015610a9f5780820380516001836020036101000a031916815260200191505b509250505060405180910390f35b348015610ab957600080fd5b50610afa600480360381019080803573ffffffffffffffffffffffffffffffffffffffff169060200190929190803515159060200190929190505050612335565b005b348015610b0857600080fd5b50610b2760048036038101908080359060200190929190505050612471565b6040518080602001806020018663ffffffff1663ffffffff1681526020018563ffffffff1663ffffffff16815260200180602001848103845289818151815260200191508051906020019080838360005b83811015610b93578082015181840152602081019050610b78565b50505050905090810190601f168015610bc05780820380516001836020036101000a031916815260200191505b50848103835288818151815260200191508051906020019080838360005b83811015610bf9578082015181840152602081019050610bde565b50505050905090810190601f168015610c265780820380516001836020036101000a031916815260200191505b50848103825285818151815260200191508051906020019080838360005b83811015610c5f578082015181840152602081019050610c44565b50505050905090810190601f168015610c8c5780820380516001836020036101000a031916815260200191505b509850505050505050505060405180910390f35b348015610cac57600080fd5b50610d51600480360381019080803573ffffffffffffffffffffffffffffffffffffffff169060200190929190803573ffffffffffffffffffffffffffffffffffffffff16906020019092919080359060200190929190803590602001908201803590602001908080601f0160208091040260200160405190810160405280939291908181526020018383808284378201915050505050509192919290505050612683565b005b348015610d5f57600080fd5b50610d94600480360381019080803573ffffffffffffffffffffffffffffffffffffffff169060200190929190505050612740565b005b348015610da257600080fd5b50610dc160048036038101908080359060200190929190505050612853565b6040518080602001828103825283818151815260200191508051906020019080838360005b83811015610e01578082015181840152602081019050610de6565b50505050905090810190601f168015610e2e5780820380516001836020036101000a031916815260200191505b509250505060405180910390f35b348015610e4857600080fd5b50610e7d600480360381019080803573ffffffffffffffffffffffffffffffffffffffff16906020019092919050505061291c565b005b348015610e8b57600080fd5b50610efe600480360381019080803573ffffffffffffffffffffffffffffffffffffffff169060200190929190803573ffffffffffffffffffffffffffffffffffffffff16906020019092919080359060200190929190803567ffffffffffffffff1690602001909291905050506129f8565b005b348015610f0c57600080fd5b50610f61600480360381019080803573ffffffffffffffffffffffffffffffffffffffff169060200190929190803573ffffffffffffffffffffffffffffffffffffffff169060200190929190505050612c45565b604051808215151515815260200191505060405180910390f35b348015610f8757600080fd5b50610fbc600480360381019080803573ffffffffffffffffffffffffffffffffffffffff169060200190929190505050612cd9565b005b60006301ffc9a77c0100000000000000000000000000000000000000000000000000000000027bffffffffffffffffffffffffffffffffffffffffffffffffffffffff1916827bffffffffffffffffffffffffffffffffffffffffffffffffffffffff1916148061108f57506380ac58cd7c0100000000000000000000000000000000000000000000000000000000027bffffffffffffffffffffffffffffffffffffffffffffffffffffffff1916827bffffffffffffffffffffffffffffffffffffffffffffffffffffffff1916145b8061111657507fffffffffffffffffffffffffffffffffffffffffffffffffffffffffb0aa71877c0100000000000000000000000000000000000000000000000000000000027bffffffffffffffffffffffffffffffffffffffffffffffffffffffff1916827bffffffffffffffffffffffffffffffffffffffffffffffffffffffff1916145b80611181575063780e9d637c0100000000000000000000000000000000000000000000000000000000027bffffffffffffffffffffffffffffffffffffffffffffffffffffffff1916827bffffffffffffffffffffffffffffffffffffffffffffffffffffffff1916145b806111ec5750635b5e139f7c0100000000000000000000000000000000000000000000000000000000027bffffffffffffffffffffffffffffffffffffffffffffffffffffffff1916827bffffffffffffffffffffffffffffffffffffffffffffffffffffffff1916145b9050919050565b606060048054600181600116156101000203166002900480601f01602080910402602001604051908101604052809291908181526020018280546001816001161561010002031660029004801561128b5780601f106112605761010080835404028352916020019161128b565b820191906000526020600020905b81548152906001019060200180831161126e57829003601f168201915b5050505050905090565b60006001600083815260200190815260200160002060009054906101000a900473ffffffffffffffffffffffffffffffffffffffff169050919050565b60006112dd82611fa7565b90508073ffffffffffffffffffffffffffffffffffffffff168373ffffffffffffffffffffffffffffffffffffffff161415151561131a57600080fd5b8073ffffffffffffffffffffffffffffffffffffffff163373ffffffffffffffffffffffffffffffffffffffff16148061135a57506113598133612c45565b5b151561136557600080fd5b600073ffffffffffffffffffffffffffffffffffffffff1661138683611295565b73ffffffffffffffffffffffffffffffffffffffff161415806113d65750600073ffffffffffffffffffffffffffffffffffffffff168373ffffffffffffffffffffffffffffffffffffffff1614155b1561149357826001600084815260200190815260200160002060006101000a81548173ffffffffffffffffffffffffffffffffffffffff021916908373ffffffffffffffffffffffffffffffffffffffff1602179055508273ffffffffffffffffffffffffffffffffffffffff168173ffffffffffffffffffffffffffffffffffffffff167f8c5be1e5ebec7d5bd14f71427d1e84f3dd0314c0f7b2291e5b200ac8c7c3b925846040518082815260200191505060405180910390a35b505050565b600b60009054906101000a900473ffffffffffffffffffffffffffffffffffffffff1673ffffffffffffffffffffffffffffffffffffffff163373ffffffffffffffffffffffffffffffffffffffff1614806115415750600d60009054906101000a900473ffffffffffffffffffffffffffffffffffffffff1673ffffffffffffffffffffffffffffffffffffffff163373ffffffffffffffffffffffffffffffffffffffff16145b151561154c57600080fd5b61155583611bc0565b151561156057600080fd5b61159c8383838080601f016020809104026020016040519081016040528093929190818152602001838380828437820191505050505050612e31565b505050565b6000600880549050905090565b7f64f67b17a7b74b9c424a8167ef10ebe6db08093114e7960aa977153bfc75bec042838360405180848152602001806020018373ffffffffffffffffffffffffffffffffffffffff1673ffffffffffffffffffffffffffffffffffffffff168152602001828103825284818151815260200191508051906020019080838360005b8381101561164a57808201518184015260208101905061162f565b50505050905090810190601f1680156116775780820380516001836020036101000a031916815260200191505b5094505050505060405180910390a15050565b80600d60009054906101000a900473ffffffffffffffffffffffffffffffffffffffff1673ffffffffffffffffffffffffffffffffffffffff163373ffffffffffffffffffffffffffffffffffffffff1614156117e157600073ffffffffffffffffffffffffffffffffffffffff168473ffffffffffffffffffffffffffffffffffffffff161415151561171d57600080fd5b600073ffffffffffffffffffffffffffffffffffffffff168373ffffffffffffffffffffffffffffffffffffffff161415151561175957600080fd5b6117638483612e71565b61176d8483612fda565b61177783836131f2565b8273ffffffffffffffffffffffffffffffffffffffff168473ffffffffffffffffffffffffffffffffffffffff167fddf252ad1be2c89b69c2b068fc378daa952ba7f163c4a11628f55a4df523b3ef846040518082815260200191505060405180910390a36118f2565b6117eb33826132c9565b15156117f657600080fd5b600073ffffffffffffffffffffffffffffffffffffffff168473ffffffffffffffffffffffffffffffffffffffff161415151561183257600080fd5b600073ffffffffffffffffffffffffffffffffffffffff168373ffffffffffffffffffffffffffffffffffffffff161415151561186e57600080fd5b6118788483612e71565b6118828483612fda565b61188c83836131f2565b8273ffffffffffffffffffffffffffffffffffffffff168473ffffffffffffffffffffffffffffffffffffffff167fddf252ad1be2c89b69c2b068fc378daa952ba7f163c4a11628f55a4df523b3ef846040518082815260200191505060405180910390a35b50505050565b600061190383612024565b8210151561191057600080fd5b600660008473ffffffffffffffffffffffffffffffffffffffff1673ffffffffffffffffffffffffffffffffffffffff1681526020019081526020016000208281548110151561195c57fe5b9060005260206000200154905092915050565b7f191353c5ba155156d2e7798a4b8a8675b796a4e785fe4beccda6e6d51dc1d72c4282604051808381526020018060200180602001838103835284818151815260200191508051906020019080838360005b838110156119dc5780820151818401526020810190506119c1565b50505050905090810190601f168015611a095780820380516001836020036101000a031916815260200191505b5083810382526000815260200160200194505050505060405180910390a150565b80600d60009054906101000a900473ffffffffffffffffffffffffffffffffffffffff1673ffffffffffffffffffffffffffffffffffffffff163373ffffffffffffffffffffffffffffffffffffffff161415611aa257611a9d8484846020604051908101604052806000815250612683565b611ad4565b611aac33826132c9565b1515611ab757600080fd5b611ad38484846020604051908101604052806000815250612683565b5b50505050565b600b60009054906101000a900473ffffffffffffffffffffffffffffffffffffffff1673ffffffffffffffffffffffffffffffffffffffff163373ffffffffffffffffffffffffffffffffffffffff161480611b835750600d60009054906101000a900473ffffffffffffffffffffffffffffffffffffffff1673ffffffffffffffffffffffffffffffffffffffff163373ffffffffffffffffffffffffffffffffffffffff16145b1515611b8e57600080fd5b611b9781611bc0565b1515611ba257600080fd5b611bb4611bae82611fa7565b8261335e565b611bbd81613496565b50565b60008060008084815260200190815260200160002060009054906101000a900473ffffffffffffffffffffffffffffffffffffffff169050600073ffffffffffffffffffffffffffffffffffffffff168173ffffffffffffffffffffffffffffffffffffffff161415915050919050565b6000611c3b6115a1565b82101515611c4857600080fd5b600882815481101515611c5757fe5b90600052602060002001549050919050565b7fffffffffffffffffffffffffffffffffffffffffffffffffffffffffb0aa71877c01000000000000000000000000000000000000000000000000000000000281565b600b60009054906101000a900473ffffffffffffffffffffffffffffffffffffffff1673ffffffffffffffffffffffffffffffffffffffff163373ffffffffffffffffffffffffffffffffffffffff161480611d555750600d60009054906101000a900473ffffffffffffffffffffffffffffffffffffffff1673ffffffffffffffffffffffffffffffffffffffff163373ffffffffffffffffffffffffffffffffffffffff16145b1515611d6057600080fd5b600073ffffffffffffffffffffffffffffffffffffffff168273ffffffffffffffffffffffffffffffffffffffff1614151515611d9c57600080fd5b600073ffffffffffffffffffffffffffffffffffffffff168173ffffffffffffffffffffffffffffffffffffffff1614151515611dd857600080fd5b600087879050111515611dea57600080fd5b60008367ffffffffffffffff16111515611e0357600080fd5b611e0d818d6134fd565b611e498c88888080601f016020809104026020016040519081016040528093929190818152602001838380828437820191505050505050612e31565b611eba8c8c8c8080601f0160208091040260200160405190810160405280939291908181526020018383808284378201915050505050508b8b8080601f0160208091040260200160405190810160405280939291908181526020018383808284378201915050505050508888613554565b8073ffffffffffffffffffffffffffffffffffffffff168273ffffffffffffffffffffffffffffffffffffffff167f53aecee97de3cde4d6fa2bdc0901d04d1dd8053023dc090c3b375e8b14bf23568e867f5553440000000000000000000000000000000000000000000000000000000000604051808481526020018367ffffffffffffffff1667ffffffffffffffff1681526020018277ffffffffffffffffffffffffffffffffffffffffffffffff191677ffffffffffffffffffffffffffffffffffffffffffffffff19168152602001935050505060405180910390a3505050505050505050505050565b60008060008084815260200190815260200160002060009054906101000a900473ffffffffffffffffffffffffffffffffffffffff169050600073ffffffffffffffffffffffffffffffffffffffff168173ffffffffffffffffffffffffffffffffffffffff161415151561201b57600080fd5b80915050919050565b60008073ffffffffffffffffffffffffffffffffffffffff168273ffffffffffffffffffffffffffffffffffffffff161415151561206157600080fd5b600260008373ffffffffffffffffffffffffffffffffffffffff1673ffffffffffffffffffffffffffffffffffffffff168152602001908152602001600020549050919050565b7f6a690455ccc1e304f75022866ee044d804ab1100b2743da4d0c48457541d95f24283836040518084815260200180602001838152602001828103825284818151815260200191508051906020019080838360005b838110156121185780820151818401526020810190506120fd565b50505050905090810190601f1680156121455780820380516001836020036101000a031916815260200191505b5094505050505060405180910390a15050565b7f191353c5ba155156d2e7798a4b8a8675b796a4e785fe4beccda6e6d51dc1d72c428383604051808481526020018060200180602001838103835285818151815260200191508051906020019080838360005b838110156121c65780820151818401526020810190506121ab565b50505050905090810190601f1680156121f35780820380516001836020036101000a031916815260200191505b50838103825284818151815260200191508051906020019080838360005b8381101561222c578082015181840152602081019050612211565b50505050905090810190601f1680156122595780820380516001836020036101000a031916815260200191505b509550505050505060405180910390a15050565b600b60009054906101000a900473ffffffffffffffffffffffffffffffffffffffff1681565b606060058054600181600116156101000203166002900480601f01602080910402602001604051908101604052809291908181526020018280546001816001161561010002031660029004801561232b5780601f106123005761010080835404028352916020019161232b565b820191906000526020600020905b81548152906001019060200180831161230e57829003601f168201915b5050505050905090565b3373ffffffffffffffffffffffffffffffffffffffff168273ffffffffffffffffffffffffffffffffffffffff161415151561237057600080fd5b80600360003373ffffffffffffffffffffffffffffffffffffffff1673ffffffffffffffffffffffffffffffffffffffff16815260200190815260200160002060008473ffffffffffffffffffffffffffffffffffffffff1673ffffffffffffffffffffffffffffffffffffffff16815260200190815260200160002060006101000a81548160ff0219169083151502179055508173ffffffffffffffffffffffffffffffffffffffff163373ffffffffffffffffffffffffffffffffffffffff167f17307eab39ab6107e8899845ad3d59bd9653f200f220920489ca2b5937696c3183604051808215151515815260200191505060405180910390a35050565b6060806000806060612481613c1d565b606061248c88611bc0565b151561249757600080fd5b600c600089815260200190815260200160002060806040519081016040529081600082018054600181600116156101000203166002900480601f01602080910402602001604051908101604052809291908181526020018280546001816001161561010002031660029004801561254f5780601f106125245761010080835404028352916020019161254f565b820191906000526020600020905b81548152906001019060200180831161253257829003601f168201915b50505050508152602001600182018054600181600116156101000203166002900480601f0160208091040260200160405190810160405280929190818152602001828054600181600116156101000203166002900480156125f15780601f106125c6576101008083540402835291602001916125f1565b820191906000526020600020905b8154815290600101906020018083116125d457829003601f168201915b505050505081526020016002820160009054906101000a900463ffffffff1663ffffffff1663ffffffff1681526020016002820160049054906101000a900463ffffffff1663ffffffff1663ffffffff1681525050915061265188612853565b905081600001518260200151836040015184606001518484945083935096509650965096509650505091939590929450565b81600d60009054906101000a900473ffffffffffffffffffffffffffffffffffffffff1673ffffffffffffffffffffffffffffffffffffffff163373ffffffffffffffffffffffffffffffffffffffff161415612701576126e585858561168a565b6126f185858585613633565b15156126fc57600080fd5b612739565b61270b33826132c9565b151561271657600080fd5b61272185858561168a565b61272d85858585613633565b151561273857600080fd5b5b5050505050565b600d60149054906101000a900460ff1615151561275c57600080fd5b80600b60006101000a81548173ffffffffffffffffffffffffffffffffffffffff021916908373ffffffffffffffffffffffffffffffffffffffff1602179055506040805190810160405280601781526020017f4469676974616c204f626a6563747320417274776f726b000000000000000000815250600490805190602001906127e8929190613c52565b506040805190810160405280600481526020017f444f424a0000000000000000000000000000000000000000000000000000000081525060059080519060200190612834929190613c52565b506001600d60146101000a81548160ff02191690831515021790555050565b606061285e82611bc0565b151561286957600080fd5b600a60008381526020019081526020016000208054600181600116156101000203166002900480601f0160208091040260200160405190810160405280929190818152602001828054600181600116156101000203166002900480156129105780601f106128e557610100808354040283529160200191612910565b820191906000526020600020905b8154815290600101906020018083116128f357829003601f168201915b50505050509050919050565b600b60009054906101000a900473ffffffffffffffffffffffffffffffffffffffff1673ffffffffffffffffffffffffffffffffffffffff163373ffffffffffffffffffffffffffffffffffffffff1614151561297857600080fd5b600073ffffffffffffffffffffffffffffffffffffffff168173ffffffffffffffffffffffffffffffffffffffff16141515156129b457600080fd5b80600d60006101000a81548173ffffffffffffffffffffffffffffffffffffffff021916908373ffffffffffffffffffffffffffffffffffffffff16021790555050565b81600d60009054906101000a900473ffffffffffffffffffffffffffffffffffffffff1673ffffffffffffffffffffffffffffffffffffffff163373ffffffffffffffffffffffffffffffffffffffff161415612b3e57612a5a85858561168a565b8373ffffffffffffffffffffffffffffffffffffffff168573ffffffffffffffffffffffffffffffffffffffff167f53aecee97de3cde4d6fa2bdc0901d04d1dd8053023dc090c3b375e8b14bf235685857f5553440000000000000000000000000000000000000000000000000000000000604051808481526020018367ffffffffffffffff1667ffffffffffffffff1681526020018277ffffffffffffffffffffffffffffffffffffffffffffffff191677ffffffffffffffffffffffffffffffffffffffffffffffff19168152602001935050505060405180910390a3612c3e565b612b4833826132c9565b1515612b5357600080fd5b612b5e85858561168a565b8373ffffffffffffffffffffffffffffffffffffffff168573ffffffffffffffffffffffffffffffffffffffff167f53aecee97de3cde4d6fa2bdc0901d04d1dd8053023dc090c3b375e8b14bf235685857f5553440000000000000000000000000000000000000000000000000000000000604051808481526020018367ffffffffffffffff1667ffffffffffffffff1681526020018277ffffffffffffffffffffffffffffffffffffffffffffffff191677ffffffffffffffffffffffffffffffffffffffffffffffff19168152602001935050505060405180910390a35b5050505050565b6000600360008473ffffffffffffffffffffffffffffffffffffffff1673ffffffffffffffffffffffffffffffffffffffff16815260200190815260200160002060008373ffffffffffffffffffffffffffffffffffffffff1673ffffffffffffffffffffffffffffffffffffffff16815260200190815260200160002060009054906101000a900460ff16905092915050565b600b60009054906101000a900473ffffffffffffffffffffffffffffffffffffffff1673ffffffffffffffffffffffffffffffffffffffff163373ffffffffffffffffffffffffffffffffffffffff16141515612d3557600080fd5b600073ffffffffffffffffffffffffffffffffffffffff168173ffffffffffffffffffffffffffffffffffffffff1614151515612d7157600080fd5b8073ffffffffffffffffffffffffffffffffffffffff16600b60009054906101000a900473ffffffffffffffffffffffffffffffffffffffff1673ffffffffffffffffffffffffffffffffffffffff167f8be0079c531659141344cd1fd0a4f28419497f9722a3daafe3b4186f6b6457e060405160405180910390a380600b60006101000a81548173ffffffffffffffffffffffffffffffffffffffff021916908373ffffffffffffffffffffffffffffffffffffffff16021790555050565b612e3a82611bc0565b1515612e4557600080fd5b80600a60008481526020019081526020016000209080519060200190612e6c929190613c52565b505050565b8173ffffffffffffffffffffffffffffffffffffffff16612e9182611fa7565b73ffffffffffffffffffffffffffffffffffffffff16141515612eb357600080fd5b600073ffffffffffffffffffffffffffffffffffffffff166001600083815260200190815260200160002060009054906101000a900473ffffffffffffffffffffffffffffffffffffffff1673ffffffffffffffffffffffffffffffffffffffff16141515612fd65760006001600083815260200190815260200160002060006101000a81548173ffffffffffffffffffffffffffffffffffffffff021916908373ffffffffffffffffffffffffffffffffffffffff160217905550600073ffffffffffffffffffffffffffffffffffffffff168273ffffffffffffffffffffffffffffffffffffffff167f8c5be1e5ebec7d5bd14f71427d1e84f3dd0314c0f7b2291e5b200ac8c7c3b925836040518082815260200191505060405180910390a35b5050565b6000806000612fe98585613821565b600760008581526020019081526020016000205492506130556001600660008873ffffffffffffffffffffffffffffffffffffffff1673ffffffffffffffffffffffffffffffffffffffff1681526020019081526020016000208054905061394f90919063ffffffff16565b9150600660008673ffffffffffffffffffffffffffffffffffffffff1673ffffffffffffffffffffffffffffffffffffffff168152602001908152602001600020828154811015156130a357fe5b9060005260206000200154905080600660008773ffffffffffffffffffffffffffffffffffffffff1673ffffffffffffffffffffffffffffffffffffffff168152602001908152602001600020848154811015156130fd57fe5b90600052602060002001819055506000600660008773ffffffffffffffffffffffffffffffffffffffff1673ffffffffffffffffffffffffffffffffffffffff1681526020019081526020016000208381548110151561315957fe5b9060005260206000200181905550600660008673ffffffffffffffffffffffffffffffffffffffff1673ffffffffffffffffffffffffffffffffffffffff1681526020019081526020016000208054809190600190036131b99190613cd2565b50600060076000868152602001908152602001600020819055508260076000838152602001908152602001600020819055505050505050565b60006131fe8383613968565b600660008473ffffffffffffffffffffffffffffffffffffffff1673ffffffffffffffffffffffffffffffffffffffff168152602001908152602001600020805490509050600660008473ffffffffffffffffffffffffffffffffffffffff1673ffffffffffffffffffffffffffffffffffffffff168152602001908152602001600020829080600181540180825580915050906001820390600052602060002001600090919290919091505550806007600084815260200190815260200160002081905550505050565b6000806132d583611fa7565b90508073ffffffffffffffffffffffffffffffffffffffff168473ffffffffffffffffffffffffffffffffffffffff16148061334457508373ffffffffffffffffffffffffffffffffffffffff1661332c84611295565b73ffffffffffffffffffffffffffffffffffffffff16145b8061335557506133548185612c45565b5b91505092915050565b600080600061336d8585613ac0565b6000600a60008681526020019081526020016000208054600181600116156101000203166002900490501415156133be57600a600085815260200190815260200160002060006133bd9190613cfe565b5b600960008581526020019081526020016000205492506133ed600160088054905061394f90919063ffffffff16565b91506008828154811015156133fe57fe5b906000526020600020015490508060088481548110151561341b57fe5b9060005260206000200181905550600060088381548110151561343a57fe5b9060005260206000200181905550600880548091906001900361345d9190613cd2565b50600060096000868152602001908152602001600020819055508260096000838152602001908152602001600020819055505050505050565b600c6000828152602001908152602001600020600080820160006134ba9190613cfe565b6001820160006134ca9190613cfe565b6002820160006101000a81549063ffffffff02191690556002820160046101000a81549063ffffffff0219169055505050565b6135078282613b3e565b600880549050600960008381526020019081526020016000208190555060088190806001815401808255809150509060018203906000526020600020016000909192909190915055505050565b61355c613c1d565b6080604051908101604052808681526020018581526020018463ffffffff1681526020018363ffffffff16815250905080600c600088815260200190815260200160002060008201518160000190805190602001906135bc929190613d46565b5060208201518160010190805190602001906135d9929190613d46565b5060408201518160020160006101000a81548163ffffffff021916908363ffffffff16021790555060608201518160020160046101000a81548163ffffffff021916908363ffffffff160217905550905050505050505050565b6000806136558573ffffffffffffffffffffffffffffffffffffffff16613bee565b15156136645760019150613818565b8473ffffffffffffffffffffffffffffffffffffffff1663f0b9e5ba8786866040518463ffffffff167c0100000000000000000000000000000000000000000000000000000000028152600401808473ffffffffffffffffffffffffffffffffffffffff1673ffffffffffffffffffffffffffffffffffffffff16815260200183815260200180602001828103825283818151815260200191508051906020019080838360005b8381101561372657808201518184015260208101905061370b565b50505050905090810190601f1680156137535780820380516001836020036101000a031916815260200191505b50945050505050602060405180830381600087803b15801561377457600080fd5b505af1158015613788573d6000803e3d6000fd5b505050506040513d602081101561379e57600080fd5b8101908080519060200190929190505050905063f0b9e5ba7c0100000000000000000000000000000000000000000000000000000000027bffffffffffffffffffffffffffffffffffffffffffffffffffffffff1916817bffffffffffffffffffffffffffffffffffffffffffffffffffffffff19161491505b50949350505050565b8173ffffffffffffffffffffffffffffffffffffffff1661384182611fa7565b73ffffffffffffffffffffffffffffffffffffffff1614151561386357600080fd5b6138b66001600260008573ffffffffffffffffffffffffffffffffffffffff1673ffffffffffffffffffffffffffffffffffffffff1681526020019081526020016000205461394f90919063ffffffff16565b600260008473ffffffffffffffffffffffffffffffffffffffff1673ffffffffffffffffffffffffffffffffffffffff16815260200190815260200160002081905550600080600083815260200190815260200160002060006101000a81548173ffffffffffffffffffffffffffffffffffffffff021916908373ffffffffffffffffffffffffffffffffffffffff1602179055505050565b600082821115151561395d57fe5b818303905092915050565b600073ffffffffffffffffffffffffffffffffffffffff1660008083815260200190815260200160002060009054906101000a900473ffffffffffffffffffffffffffffffffffffffff1673ffffffffffffffffffffffffffffffffffffffff161415156139d557600080fd5b8160008083815260200190815260200160002060006101000a81548173ffffffffffffffffffffffffffffffffffffffff021916908373ffffffffffffffffffffffffffffffffffffffff160217905550613a796001600260008573ffffffffffffffffffffffffffffffffffffffff1673ffffffffffffffffffffffffffffffffffffffff16815260200190815260200160002054613c0190919063ffffffff16565b600260008473ffffffffffffffffffffffffffffffffffffffff1673ffffffffffffffffffffffffffffffffffffffff168152602001908152602001600020819055505050565b613aca8282612e71565b613ad48282612fda565b600073ffffffffffffffffffffffffffffffffffffffff168273ffffffffffffffffffffffffffffffffffffffff167fddf252ad1be2c89b69c2b068fc378daa952ba7f163c4a11628f55a4df523b3ef836040518082815260200191505060405180910390a35050565b600073ffffffffffffffffffffffffffffffffffffffff168273ffffffffffffffffffffffffffffffffffffffff1614151515613b7a57600080fd5b613b8482826131f2565b8173ffffffffffffffffffffffffffffffffffffffff16600073ffffffffffffffffffffffffffffffffffffffff167fddf252ad1be2c89b69c2b068fc378daa952ba7f163c4a11628f55a4df523b3ef836040518082815260200191505060405180910390a35050565b600080823b905060008111915050919050565b60008183019050828110151515613c1457fe5b80905092915050565b6080604051908101604052806060815260200160608152602001600063ffffffff168152602001600063ffffffff1681525090565b828054600181600116156101000203166002900490600052602060002090601f016020900481019282601f10613c9357805160ff1916838001178555613cc1565b82800160010185558215613cc1579182015b82811115613cc0578251825591602001919060010190613ca5565b5b509050613cce9190613dc6565b5090565b815481835581811115613cf957818360005260206000209182019101613cf89190613dc6565b5b505050565b50805460018160011615610100020316600290046000825580601f10613d245750613d43565b601f016020900490600052602060002090810190613d429190613dc6565b5b50565b828054600181600116156101000203166002900490600052602060002090601f016020900481019282601f10613d8757805160ff1916838001178555613db5565b82800160010185558215613db5579182015b82811115613db4578251825591602001919060010190613d99565b5b509050613dc29190613dc6565b5090565b613de891905b80821115613de4576000816000905550600101613dcc565b5090565b905600a165627a7a7230582010fb860ee46d6928ff366c56f8f1a2ce54d41bc8aed3506970a2f014356c15b40029",
  "source": "pragma solidity ^0.4.23;\n\nimport \"openzeppelin-solidity/contracts/ownership/Ownable.sol\";\nimport \"openzeppelin-solidity/contracts/token/ERC721/ERC721Token.sol\";\nimport \"./Logger.sol\";\n\n\ninterface ERC165 {\n    /// @notice Query if a contract implements an interface\n    /// @param interfaceID The interface identifier, as specified in ERC-165\n    /// @dev Interface identification is specified in ERC-165. This function\n    ///  uses less than 30,000 gas.\n    /// @return `true` if the contract implements `interfaceID` and\n    ///  `interfaceID` is not 0xffffffff, `false` otherwise\n    function supportsInterface(bytes4 interfaceID) external pure returns (bool);\n}\n\n\ncontract ArtworkToken is ERC721Token, ERC165, Ownable, Logger {\n    using SafeMath for uint256;\n\n    /* solhint-disable */\n    bytes4 constant InterfaceSignature_ERC165 = 0x01ffc9a7;\n    /*\n    bytes4(keccak256('supportsInterface(bytes4)'));\n    */\n\n    bytes4 constant InterfaceSignature_ERC721Enumerable = 0x780e9d63;\n    /*\n    bytes4(keccak256('totalSupply()')) ^\n    bytes4(keccak256('tokenOfOwnerByIndex(address,uint256)')) ^\n    bytes4(keccak256('tokenByIndex(uint256)'));\n    */\n\n    bytes4 constant InterfaceSignature_ERC721Metadata = 0x5b5e139f;\n    /*\n    bytes4(keccak256('name()')) ^\n    bytes4(keccak256('symbol()')) ^\n    bytes4(keccak256('tokenURI(uint256)'));\n    */\n\n    bytes4 constant InterfaceSignature_ERC721 = 0x80ac58cd;\n    /*\n    bytes4(keccak256('balanceOf(address)')) ^\n    bytes4(keccak256('ownerOf(uint256)')) ^\n    bytes4(keccak256('approve(address,uint256)')) ^\n    bytes4(keccak256('getApproved(uint256)')) ^\n    bytes4(keccak256('setApprovalForAll(address,bool)')) ^\n    bytes4(keccak256('isApprovedForAll(address,address)')) ^\n    bytes4(keccak256('transferFrom(address,address,uint256)')) ^\n    bytes4(keccak256('safeTransferFrom(address,address,uint256)')) ^\n    bytes4(keccak256('safeTransferFrom(address,address,uint256,bytes)'));\n    */\n\n    bytes4 public constant InterfaceSignature_ERC721Optional =- 0x4f558e79;\n    /*\n    bytes4(keccak256('exists(uint256)'));\n    */\n\n    /**\n     * @notice Introspection interface as per ERC-165 (https://github.com/ethereum/EIPs/issues/165).\n     * @dev Returns true for any standardized interfaces implemented by this contract.\n     * @param _interfaceID bytes4 the interface to check for\n     * @return true for any standardized interfaces implemented by this contract.\n     */\n    function supportsInterface(bytes4 _interfaceID) external pure returns (bool) {\n        return ((_interfaceID == InterfaceSignature_ERC165)\n            || (_interfaceID == InterfaceSignature_ERC721)\n            || (_interfaceID == InterfaceSignature_ERC721Optional)\n            || (_interfaceID == InterfaceSignature_ERC721Enumerable)\n            || (_interfaceID == InterfaceSignature_ERC721Metadata));\n    }\n    /* solhint-enable */\n    event Sale(address indexed _from, address indexed _to, uint256 _tokenId, uint64 _price, bytes8 _currency);\n\n    struct Edition {\n        string title;\n        string artistName;\n        uint32 editionNumber;\n        uint32 editionCount;\n    }\n\n    mapping(uint256 => Edition) internal tokenIdToEdition;\n    address managerContract;\n    bool internal _initialized;\n\n    modifier onlyManagers() {\n        require(msg.sender == owner || msg.sender == managerContract);\n        _;\n    }\n\n    modifier canTransfer(uint256 _tokenId) {\n        if (msg.sender == managerContract) {\n            _;\n        } else { //this is parent modifier, super didn't seem to work\n            require(isApprovedOrOwner(msg.sender, _tokenId));\n            _;\n        }\n    }\n\n    // Initialize constructor with token name and symbol\n    constructor() public ERC721Token(\"Digital Objects Artwork\", \"DOBJ\") {\n    }\n\n    function initialize(address _owner) public {\n        require(!_initialized);\n\n        owner = _owner;     //Ownable constructor\n        name_ = \"Digital Objects Artwork\";      //ERC721Token constructor\n        symbol_ = \"DOBJ\";  //ERC721Token constructor\n        _initialized = true;\n\n    }\n\n    function setManager(address _manager) public onlyOwner {\n        require(_manager != address(0));\n        //OwnershipTransferred(owner, newOwner);\n        managerContract = _manager;\n    }\n\n    function editionInfo(uint256 _tokenId) public view returns (\n        string _title,\n        string _artistName,\n        uint32 _edition,\n        uint32 _editionNumber,\n        string _tokenURI\n    ) {\n        require(exists(_tokenId));\n        Edition memory edition = tokenIdToEdition[_tokenId];\n        string memory URI = tokenURI(_tokenId);\n        return (\n            edition.title,\n            edition.artistName,\n            edition.editionNumber,\n            edition.editionCount,\n            URI\n        );\n    }\n\n    function mint(\n        uint256 _tokenId,\n        string _title,\n        string _artistName,\n        string _tokenURI,\n        uint32 _editionNumber,\n        uint32 _editionCount,\n        uint64 _price,\n        address _artist,\n        address _buyer\n    ) external onlyManagers {\n        require(_artist != address(0));\n        require(_buyer != address(0));\n        //require(exists(_tokenId));\n        require(bytes(_tokenURI).length > 0);\n        require(_price > 0);\n        super._mint(_buyer, _tokenId);\n        super._setTokenURI(_tokenId, _tokenURI);\n        _populateTokenData(_tokenId, _title, _artistName, _editionNumber, _editionCount);\n        emit Sale(_artist, _buyer, _tokenId, _price, bytes8(\"USD\"));\n    }\n\n    function transferFrom(address _seller, address _buyer, uint256 _tokenId, uint64 _price) public canTransfer(_tokenId) {\n        super.transferFrom(_seller, _buyer, _tokenId);\n        emit Sale(_seller, _buyer, _tokenId, _price, bytes8(\"USD\"));\n    }\n\n    function burn(uint256 _tokenId) public onlyManagers {\n        require(exists(_tokenId));\n        super._burn(ownerOf(_tokenId), _tokenId);\n\n        _removeTokenData(_tokenId);\n    }\n\n    function setTokenURI(uint256 _tokenId, string _uri) external onlyManagers {\n        require(exists(_tokenId));\n        _setTokenURI(_tokenId, _uri);\n    }\n\n    function _populateTokenData(uint256 _tokenId, string _artistName, string _title, uint32 _editionNumber, uint32 _editionCount) internal {\n        Edition memory edition = Edition(_artistName, _title, _editionNumber, _editionCount);\n        tokenIdToEdition[_tokenId] = edition;\n    }\n\n    function _removeTokenData(uint _tokenId) internal {\n        delete tokenIdToEdition[_tokenId];\n    }\n}\n",
  "sourcePath": "/Users/emkman/dev/eth/dobjects/artgraph-eth/contracts/ArtworkToken.sol",
  "compiler": {
    "name": "solc",
    "version": "0.4.23+commit.124ca40d.Emscripten.clang"
  },
  "schemaVersion": "2.0.0",
  "updatedAt": "2018-05-18T04:01:21.457Z"
}